:0200000091C1AC
:020012000BC021
:10001C001DC0160074000000140060008A04FA93DE
:10002C00EA932A931A930A932FB702E802BFE4E7E4
:10003C00F0E0008911890F5F1F4F118B008B2FBFD0
:10004C00099119912991E991F9911895FA93EA93EB
:10005C003A922A921A920A927A936A935A934A93F0
:10006C003A932A931A930A93BAD14FB6E4E7F0E085
:10007C0006851785003004E01007DCF404B115B1D7
:10008C0020E030E0E4E7F0E040855185628573853F
:10009C00400F511F621F731F738762875187408700
:1000AC00E4E7F0E0068517850F5F1F4F178706877B
:1000BC0068C0E4E7F0E00085118522853385012FC7
:1000CC00122F232F30E02695179507952695179517
:1000DC000795E4E7F0E0008711872287338700E07B
:1000EC0010E0E4E7F0E00487158733C0E4E7F0E0C4
:1000FC0000851185228533854AE050E060E070E090
:10010C0046D1842F952F43E0E4E7F0E00485158574
:10011C00401B02E011D1E02FEC58F0E0808391837A
:10012C00E4E7F0E000851185228533854AE050E054
:10013C0060E070E02CD1E4E7F0E0008711872287C3
:10014C003387E4E7F0E0048515850F5F1F4F1587B3
:10015C000487A4E7B0E01C96ED91FC911D973497B1
:10016C002CF200E010E0E4E7F0E00687178700E0EF
:10017C0010E020E030E0E4E7F0E000871187228710
:10018C0033874FBEE5E031D109911991299139910D
:10019C0049915991699179910990199029903990C7
:1001AC00E991F99118951CD1F8940FEF01BB0FE070
:1001BC0004BB0FEF02BB00E005BB03E003BF02E88A
:1001CC0002BF09B7016009BF01E007B1046C07B9B0
:1001DC0006B10F6B06B97894369A01E013C000E0B3
:1001EC0010E008231923012B39F415B301E04091D9
:1001FC008800AAD0012B05BB00E010E0E4E7F0E09A
:10020C00008B118BA4E7B0E05096ED91FC915197C7
:10021C003597C1F715B301E04091880095D0009552
:10022C00012305BB00918800043021F400E0009309
:10023C00880005C0E4E7F0E004890395048B409145
:10024C00880002E079D0E02FEC58F0E000811181B9
:10025C00402F02E071D0E02FE05AF0E000811181D4
:10026C000093890000E010E0E4E7F0E0028B138BD0
:10027C0019C052B301E047E0E4E7F0E0228933898A
:10028C00122F411B61D0052B02BB009189000695F2
:10029C0000938900E4E7F0E0028913890F5F1F4F98
:1002AC00138B028BA4E7B0E05296ED91FC9153971F
:1002BC003897A4F40091890042E04BD04423C9F252
:1002CC0052B301E047E0E4E7F0E022893389122FD2
:1002DC00411B3AD00095052302BBD7CF0091880073
:1002EC00023011F4959A01E000918800002319F472
:1002FC0081E090E002C080E090E04091880002E054
:10030C001BD0E02FEC58F0E000811181012B09F09B
:10031C0066CF01E010E065CF0AE003500DBF01E0AD
:10032C0000400EBFCAECD0E06CD0002309F07CD0AA
:10033C003ADF01D0A0C09FC0002E0027469508F4DC
:10034C00000D000CD9F708954A9512F0000FE1F753
:10035C0008950024E8E0EA9532F0001F001C041612
:10036C00D0F3041AF8CF001F402D009508950024F7
:10037C0011240030010741F01695079510F4040E76
:10038C00151E440F551FF5CF002D112D0895002477
:10039C00112422243324E0E2EA9592F0001F111F6D
:1003AC00221F331F001C111C221C331C04161506A3
:1003BC002606370688F3041A150A260A370AECCFE4
:1003CC00001F111F221F331F402D512D622D732D25
:1003DC0000951095209530950895419241904A9240
:1003EC00BA93AA939A938A9308954C80BB81AA815D
:1003FC0099818881F0E00FB6F894CE0FDF1F0FBE05
:10040C00089501E0089520E02D9301501040202F15
:10041C00212BC9F70895C89531960D9201501040C3
:10042C00202F212BC1F708958EE190E0E82FF92FB2
:10043C00C895002D3196C895102DE82FF92F3296BE
:10044C00C895A02D3196C895B02DE82FF92F34966C
:10045C00C895402D3196C89530E04030030621F008
:10046C00E42FF02DD8DF01C0CEDF069610E08A32E3
:10047C009107E0F2089501C000008895FECF1400AA
:10048C00BE004C008C002700850084009E000400F8
:02049C000C0052
:00000001FF
